S014000054696D65725F5461736B5F382E7372656386
S11300000C9472000C9484000C9484000C9484006E
S11300100C9484000C9484000C9484000C94D201FD
S11300200C94FB010C9424020C944B020C94740267
S11300300C9484000C9484000C9484000C9484002C
S11300400C9484000C9484000C9484000C9484001C
S11300500C948400D000E90002011B013301330138
S113006033013301330133013301330133013301EC
S113007033013301330133013301330133013301DC
S113008033013301330133013301330133013301CC
S113009033013301D000E90002011B014001590181
S11300A072018B01A301A301A301A301A301A30175
S11300B0A301A301A301A301A301A301A301A3011C
S11300C0A301A301A301A301A301A301A301A3010C
S11300D0A301A301A301A301A301A30140015901A9
S11300E072018B0111241FBECFE5D8E0DEBFCDBF66
S11300F020E0A0E6B0E001C01D92A336B207E1F70C
S11301000E9486000C9482020C94000060E081E45A
S11301100E94B80060E081E40E94C0000E94A40133
S11301200E94C90187EF92EC0E94C6018BE990E01E
S11301300E94CD01FFCF8091600081110CC060E06E
S113014081E40E94BC0081E08093600081E69BED25
S11301500E94C6010895813051F487EF92EC0E9409
S1130160C60160E081E40E94C0001092600008951E
S113017041E00E94C400089541E00E9434010895C2
S113018040E00E943401089590E0FC01E154F1093B
S1130190E432F10508F067C0E65DFF4F0C947C0281
S11301A0413059F42AB381E090E002C0880F991FCE
S11301B06A95E2F7822B8ABB08952AB381E090E026
S11301C002C0880F991F6A95E2F7809582238ABB43
S11301D00895413059F427B381E090E002C0880FBC
S11301E0991F6A95E2F7822B87BB089527B381E0B4
S11301F090E002C0880F991F6A95E2F780958223E8
S113020087BB0895413059F424B381E090E002C0E3
S1130210880F991F6A95E2F7822B84BB089524B353
S113022081E090E002C0880F991F6A95E2F78095FB
S1130230822384BB0895413059F421B381E090E0D6
S113024002C0880F991F6A95E2F7822B81BB08953B
S113025021B381E090E002C0880F991F6A95E2F70C
S11302608095822381BB089590E0FC01E154F1095B
S1130270E432F10508F067C0E25BFF4F0C947C02A6
S1130280413059F42BB381E090E002C0880F991FEC
S11302906A95E2F7822B8BBB08952BB381E090E043
S11302A002C0880F991F6A95E2F7809582238BBB61
S11302B00895413059F428B381E090E002C0880FDA
S11302C0991F6A95E2F7822B88BB089528B381E0D1
S11302D090E002C0880F991F6A95E2F78095822307
S11302E088BB0895413059F425B381E090E002C001
S11302F0880F991F6A95E2F7822B85BB089525B371
S113030081E090E002C0880F991F6A95E2F780951A
S1130310822385BB0895413059F422B381E090E0F3
S113032002C0880F991F6A95E2F7822B82BB089559
S113033022B381E090E002C0880F991F6A95E2F72A
S11303408095822382BB089583B78B7F83BF83B755
S11303508D7F83BF83B78E7F83BF89B7846089BF56
S113036089B78F7E89BF89B7877F89BF8EB58F7E16
S11303708EBD8EB5877F8EBD8FB58D7F8FBD8FB5BA
S11303808E7F8FBD8EB583608EBD08959DBD8CBD5F
S113039008958FB780688FBF08959093620080930B
S11303A0610008951F920F920FB60F9211242F939C
S11303B03F934F935F936F937F938F939F93AF93E9
S11303C0BF93EF93FF93E0916100F0916200309747
S11303D009F00995FF91EF91BF91AF919F918F9192
S11303E07F916F915F914F913F912F910F900FBE2D
S11303F00F901F9018951F920F920FB60F92112411
S11304002F933F934F935F936F937F938F939F9318
S1130410AF93BF93EF93FF93E0916100F09162007B
S1130420309709F00995FF91EF91BF91AF919F919A
S11304308F917F916F915F914F913F912F910F9089
S11304400FBE0F901F9018951F920F920FB60F9228
S113045011242F933F934F935F936F937F938F93C5
S11304609F93AF93BF93EF93FF93E0916100F0915B
S113047062000995FF91EF91BF91AF919F918F9188
S11304807F916F915F914F913F912F910F900FBE8C
S11304900F901F9018951F920F920FB60F92112470
S11304A02F933F934F935F936F937F938F939F9378
S11304B0AF93BF93EF93FF93E0916100F0916200DB
S11304C0309709F00995FF91EF91BF91AF919F91FA
S11304D08F917F916F915F914F913F912F910F90E9
S11304E00FBE0F901F901895E0916100F09162008B
S11304F0309709F009950895EE0FFF1F0590F491C8
S10B0500E02D0994F894FFCFEB
S9030000FC
